{
  "_format": "hh-sol-artifact-1",
  "contractName": "CoinGame",
  "sourceName": "contracts/coin_game.sol",
  "abi": [
    {
      "inputs": [
        {
          "internalType": "address",
          "name": "tokenAddress",
          "type": "address"
        }
      ],
      "stateMutability": "nonpayable",
      "type": "constructor"
    },
    {
      "anonymous": false,
      "inputs": [
        {
          "indexed": true,
          "internalType": "address",
          "name": "owner",
          "type": "address"
        },
        {
          "indexed": false,
          "internalType": "uint256",
          "name": "amount",
          "type": "uint256"
        }
      ],
      "name": "Deposit",
      "type": "event"
    },
    {
      "anonymous": false,
      "inputs": [
        {
          "indexed": true,
          "internalType": "address",
          "name": "player",
          "type": "address"
        },
        {
          "indexed": false,
          "internalType": "bool",
          "name": "result",
          "type": "bool"
        },
        {
          "indexed": false,
          "internalType": "uint256",
          "name": "wager",
          "type": "uint256"
        }
      ],
      "name": "Tossed",
      "type": "event"
    },
    {
      "anonymous": false,
      "inputs": [
        {
          "indexed": true,
          "internalType": "address",
          "name": "owner",
          "type": "address"
        },
        {
          "indexed": false,
          "internalType": "uint256",
          "name": "amount",
          "type": "uint256"
        }
      ],
      "name": "Withdrawal",
      "type": "event"
    },
    {
      "inputs": [
        {
          "internalType": "uint256",
          "name": "amount",
          "type": "uint256"
        }
      ],
      "name": "depositTokens",
      "outputs": [],
      "stateMutability": "nonpayable",
      "type": "function"
    },
    {
      "inputs": [],
      "name": "houseBalance",
      "outputs": [
        {
          "internalType": "uint256",
          "name": "",
          "type": "uint256"
        }
      ],
      "stateMutability": "view",
      "type": "function"
    },
    {
      "inputs": [],
      "name": "owner",
      "outputs": [
        {
          "internalType": "address",
          "name": "",
          "type": "address"
        }
      ],
      "stateMutability": "view",
      "type": "function"
    },
    {
      "inputs": [
        {
          "internalType": "uint256",
          "name": "wager",
          "type": "uint256"
        }
      ],
      "name": "play",
      "outputs": [],
      "stateMutability": "nonpayable",
      "type": "function"
    },
    {
      "inputs": [],
      "name": "token",
      "outputs": [
        {
          "internalType": "contract IERC20",
          "name": "",
          "type": "address"
        }
      ],
      "stateMutability": "view",
      "type": "function"
    },
    {
      "inputs": [
        {
          "internalType": "uint256",
          "name": "amount",
          "type": "uint256"
        }
      ],
      "name": "withdrawTokens",
      "outputs": [],
      "stateMutability": "nonpayable",
      "type": "function"
    }
  ],
  "bytecode": "0x608060405234801561001057600080fd5b50604051610b4a380380610b4a83398101604081905261002f91610062565b60008054336001600160a01b031991821617909155600180549091166001600160a01b0392909216919091179055610092565b60006020828403121561007457600080fd5b81516001600160a01b038116811461008b57600080fd5b9392505050565b610aa9806100a16000396000f3fe608060405234801561001057600080fd5b50600436106100625760003560e01c8063315a095d1461006757806367084eb31461007c5780636898f82b146100985780638da5cb5b146100ab578063dd49756e146100d6578063fc0c546a146100e9575b600080fd5b61007a610075366004610870565b6100fc565b005b61008560025481565b6040519081526020015b60405180910390f35b61007a6100a6366004610870565b61022a565b6000546100be906001600160a01b031681565b6040516001600160a01b03909116815260200161008f565b61007a6100e4366004610870565b610678565b6001546100be906001600160a01b031681565b6000546001600160a01b0316331461012f5760405162461bcd60e51b815260040161012690610889565b60405180910390fd5b6002548111156101765760405162461bcd60e51b8152602060048201526012602482015271496e73756666696369656e742066756e647360701b6044820152606401610126565b60015460405163a9059cbb60e01b8152336004820152602481018390526001600160a01b039091169063a9059cbb90604401600060405180830381600087803b1580156101c257600080fd5b505af11580156101d6573d6000803e3d6000fd5b5050505080600260008282546101ec91906108e5565b909155505060405181815233907f7fcf532c15f0a6db0bd6d0e038bea71d30d808c7d98cb3bf7268a95bf5081b65906020015b60405180910390a250565b6001546040516370a0823160e01b815233600482015282916001600160a01b0316906370a0823190602401602060405180830381865afa158015610272573d6000803e3d6000fd5b505050506040513d601f19601f8201168201806040525081019061029691906108fe565b10156102e45760405162461bcd60e51b815260206004820152601a60248201527f496e73756666696369656e7420746f6b656e2062616c616e63650000000000006044820152606401610126565b8060025410156103365760405162461bcd60e51b815260206004820152601a60248201527f496e73756666696369656e7420686f7573652062616c616e63650000000000006044820152606401610126565b6001546040516323b872dd60e01b8152336004820152306024820152604481018390526001600160a01b03909116906323b872dd90606401600060405180830381600087803b15801561038857600080fd5b505af115801561039c573d6000803e3d6000fd5b505050506103c2604051806060016040528060278152602001610a4d6027913982610755565b60006103cc61079e565b600114905061044a6040518060400160405280601281526020017121b7b4b7103a37b9b99037baba31b7b6b29d60711b8152508261042757604051806040016040528060058152602001645461696c7360d81b815250610802565b60405180604001604052806005815260200164486561647360d81b815250610802565b801561051357816002600082825461046291906108e5565b90915550506001546001600160a01b031663a9059cbb33610484856002610917565b6040516001600160e01b031960e085901b1681526001600160a01b0390921660048301526024820152604401600060405180830381600087803b1580156104ca57600080fd5b505af11580156104de573d6000803e3d6000fd5b5050505061050e6040518060600160405280602a8152602001610a23602a9139610509846002610917565b610755565b61054e565b8160026000828254610525919061092e565b9250508190555061054e6040518060600160405280602981526020016109fa6029913983610755565b6001546040516370a0823160e01b81523360048201526000916001600160a01b0316906370a0823190602401602060405180830381865afa158015610597573d6000803e3d6000fd5b505050506040513d601f19601f820116820180604052508101906105bb91906108fe565b90506105fc6040518060400160405280601d81526020017f506c6179657227732066696e616c20746f6b656e2062616c616e63653a00000081525082610755565b610636604051806040016040528060168152602001752437bab9b293b9903334b730b6103130b630b731b29d60511b815250600254610755565b6040805183151581526020810185905233917fd52d0768ed518d9da00a388b969ef467a62e627113475c6e453747c245efc08e910160405180910390a2505050565b6000546001600160a01b031633146106a25760405162461bcd60e51b815260040161012690610889565b6001546040516323b872dd60e01b8152336004820152306024820152604481018390526001600160a01b03909116906323b872dd90606401600060405180830381600087803b1580156106f457600080fd5b505af1158015610708573d6000803e3d6000fd5b50505050806002600082825461071e919061092e565b909155505060405181815233907fe1fffcc4923d04b559f4d29a8bfc6cda04eb5b0d3c460751c2402c5c5cc9109c9060200161021f565b61079a828260405160240161076b929190610987565b60408051601f198184030181529190526020810180516001600160e01b0316632d839cb360e21b179052610843565b5050565b600060024442336040516020016107da93929190928352602083019190915260601b6bffffffffffffffffffffffff1916604082015260540190565b6040516020818303038152906040528051906020012060001c6107fd91906109a9565b905090565b61079a82826040516024016108189291906109cb565b60408051601f198184030181529190526020810180516001600160e01b0316634b5c427760e01b1790525b61084c8161084f565b50565b60006a636f6e736f6c652e6c6f679050600080835160208501845afa505050565b60006020828403121561088257600080fd5b5035919050565b60208082526026908201527f4f6e6c7920746865206f776e65722063616e2063616c6c20746869732066756e60408201526531ba34b7b71760d11b606082015260800190565b634e487b7160e01b600052601160045260246000fd5b818103818111156108f8576108f86108cf565b92915050565b60006020828403121561091057600080fd5b5051919050565b80820281158282048414176108f8576108f86108cf565b808201808211156108f8576108f86108cf565b6000815180845260005b818110156109675760208185018101518683018201520161094b565b506000602082860101526020601f19601f83011685010191505092915050565b60408152600061099a6040830185610941565b90508260208301529392505050565b6000826109c657634e487b7160e01b600052601260045260246000fd5b500690565b6040815260006109de6040830185610941565b82810360208401526109f08185610941565b9594505050505056fe486f7573652077696e732e20576167657220616464656420746f20686f7573652062616c616e63653a506c617965722077696e732e20546f6b656e73207472616e7366657272656420746f20706c617965723a5761676572207472616e736665727265642066726f6d20706c6179657220746f20686f7573653aa264697066735822122023e1a734e2218928749f6ed7a22c6021c3c17764637159fba626f003a3d0bf9364736f6c63430008140033",
  "linkReferences": {},
  "deployedLinkReferences": {}
}